:100000000C943E000C945B000C945B000C94090172
:100010000C945B000C945B000C945B000C945B00F4
:100020000C94E2040C945B000C945B000C945B0059
:100030000C945B000C945B000C945B000C945B00D4
:100040000C945B000C945B000C945B000C945B00C4
:100050000C945B000C945B000C945B000C945B00B4
:100060000C945B000C945B000C945B000C945B00A4
:100070000C945B000C945B000C945B0011241FBE7D
:10008000CFEFCDBFDFE3DEBF18E3A0E0B8E3EBE2E4
:10009000FCE002C005900D92A830B107D9F728E323
:1000A000A8E0B8E301C01D92AE32B207E1F70E94AA
:1000B0003E020C94A5050C940000809128048695BE
:1000C000817080930138809300380E94DA04809315
:1000D000093890930A38109208380895CF93DF9327
:1000E000C0912804C1FBDD27D0F90E94DA042091D9
:1000F00001382D1769F0D093013880930938909317
:100100000A3880910838811113C0DF91CF9108958A
:10011000309100383217A9F34091093850910A38CC
:10012000841B950B499768F320930038C1FDE9CFF4
:100130001092083881E0E9CF809115388F3F61F542
:10014000809112388B3030F5E0911238F0E0EE58A3
:10015000F4478081909112389B3028F490911238A6
:100160009F5F9093123880930E3880910E3887FFEE
:1001700043C084E08093020480910E38880F8093FE
:100180000E3810920D3884E090E080930F389093F1
:10019000103808958FEFDECFE0911538E231C8F4C2
:1001A000F0E0E955FA4F0C948B0581E090911538F9
:1001B0009F5F90931538D7CF83E4F8CF82E5F6CFD1
:1001C00089E4F4CF8BEBF2CF80E0F0CF0E94B20352
:1001D000EDCF8091153887FF0DC0809115388A3991
:1001E00048F4E0911538F0E0E350F5478081DECF28
:1001F00086E5DCCF8FEFDACF84E080930104BCCFBB
:10020000E0E0F4E08CE08283868381E0828B838B64
:1002100008951F920F920FB60F9211242F933F93C0
:100220004F935F936F937F938F939F93AF93BF93FE
:10023000EF93FF932091090420930904809108040F
:1002400082FB992790F983FB882780F922FF1DC044
:100250008115D9F091115FC041E050E040930F3813
:100260005093103810920E3810920D3810920C38AE
:1002700010920B3834E0309302041092113810922F
:100280001438109213381092123823FF33C081159E
:1002900009F49BC020910F3830911038243031057B
:1002A00009F487C02530310509F489C021303105B2
:1002B00009F580910E38880F892B80930E38809134
:1002C0000D388F5F80930D3880910D38883091F410
:1002D00080910C38811136C080910E3890910E3883
:1002E000917090930B3886958936E9F010920F380B
:1002F00010921038FF91EF91BF91AF919F918F9124
:100300007F916F915F914F913F912F910F900FBE11
:100310000F901F90189510920F381092103834E0FB
:1003200030930204B2CF1092113810921438109208
:1003300013381092123882E090E080930F38909337
:100340001038D8CF80910E3890911138911106C095
:100350008093153881E080931138E7CF909115385C
:10036000903209F1913211F19031B9F49091143831
:1003700091110AC091E0873509F090E0909313380D
:1003800081E080931438D7CF9091133891110E9457
:1003900073031092143810921338809115388F5FC0
:1003A00080931538C8CF0E94D004F7CF0E94D6049E
:1003B000F4CF80910D388F5F80930D389BCF9115CE
:1003C00009F498CF86E090E0B8CF80910F389091F3
:1003D00010388430910589F1A8F48230910501F13B
:1003E000039709F087CF84E08093020480910C3852
:1003F0008F5F80930C3880910B388115B9F00E9483
:100400009C0078CF8530910599F1069709F072CF5D
:1004100010920F381092103884E0809302046ACF53
:1004200084E08093010483E090E087CF10920E383F
:1004300010920D3881E090E080CF80910D388830A7
:1004400031F484E08093020485E090E076CF8091DF
:100450000E3887FF09C084E08093020480910E3833
:10046000880F80930E3846CF84E080930104F6CF46
:1004700080910C388F5F80930C38C1CF88ED90E06D
:1004800084BF9093600021E030E084BF209361003E
:1004900080EF80930104809306048DE08093210413
:1004A0008093260488E0809331040E94BC040E945B
:1004B0005D000E9455030E948C020E940001789406
:1004C0000E946E0081110E94B5030E94C0030E9429
:1004D000A702F6CF20911638E0910238F091033848
:1004E000E20FF11D208138E03093250434E0309391
:1004F000250441E040931A3810921B382D3249F4FC
:100500002CE231E0820F931F8093183890931938B2
:10051000089524E630E0F6CFE0E2F4E088E0868358
:1005200084E0868310921A3810921B381092173884
:100530001092163886EA9BE880930238909303382D
:100540000E94DA04809318389093193808950E9415
:10055000DA042091183830911938AC01421B530B42
:1005600057FD54C020911A3830911B382230310584
:1005700069F070F4232BA1F41092173828E93BE8B6
:100580002093023830930338109216380C946A0284
:1005900023303105E1F12430310509F45CC00895C0
:1005A00028E02093260424E0209326042091163886
:1005B0002F5F20931638E0910238F0910338E20F54
:1005C000F11D2081211117C0209117382F5F209332
:1005D00017382B3040F024E020931A3810921B3843
:1005E00088579C4E0FC023E020931A3810921B3876
:1005F000845D9E4F07C022E020931A3810921B386A
:100600008C599F4F809318389093193808952091F2
:100610001738E22FF0E0E85FF347E081EE52EC326A
:10062000B8F4F0E0EE0FFF1FE055F4470190F081C1
:10063000E02DE0930238F0930338109216383081A1
:100640003111A4CF2F5F209317382B3088F2C3CFFE
:10065000E6EAFBE8EECF10921A3810921B38D2CFA0
:10066000109227380E94DA04809325389093263818
:1006700081E00C94C604E0911E38F0E0EC5EF34794
:10068000808120911F38211182958F7083FB9927DB
:1006900090F982FD926081FD946080FB882783F948
:1006A000892B211180610C94C60481E08093043869
:1006B000E5E2F8E383E0DF011D928A95E9F7109205
:1006C0002338109224381092213810922238ECE10D
:1006D000F8E385E0DF011D928A95E9F78FEF0E942C
:1006E000D3040C943003CF93C82F8FEF8C0F84303A
:1006F000B8F5C09304388FEF0E94D3040E94CD0454
:10070000C330A1F0C430E1F0C23019F0CF910C94A5
:1007100030030E94DA0480932338909324388FE1C9
:100720000E94C60480E0CF910C94D3040E94DA04A6
:10073000809321389093223881E1CF910C94C604A4
:100740000E94DA0480931C3890931D3810921E3852
:1007500081E080931F3810922038CF910C943B0396
:10076000CF910895809104380895809104388430A1
:1007700028F4809104388F5F0C94730381E0FCCFE0
:10078000CF93DF9380910438833009F4ACC040F4F8
:10079000813051F1823009F45AC0DF91CF91089530
:1007A0008430D9F70E94DA0420911C3830911D382A
:1007B000FC01E21BF30B9F0140912038411509F425
:1007C000BBC0283B3B4008F4D3C0109220381092A5
:1007D0001E3821E020931F3880931C3890931D38D9
:1007E000DF91CF910C943B030E94DA0420912538CD
:1007F00030912638AC01421B530B4837510568F243
:1008000080932538909326388091273890E0019680
:100810006AE070E00E94550580932738843068F4C0
:10082000895D9347FC01908181E001C0880F9A9512
:10083000EAF7DF91CF910C94C60439F0893029F0A2
:10084000EFE2FCE8E81BF90BEECF80E1F2CF0E946B
:10085000DA042091233830912438EC01C21BD30BE9
:10086000C036F4E0DF0730F08093233890932438CB
:10087000C0E0D0E08FE10E94C6049E01C035D105E2
:10088000F8F0C837D10558F128EC30E0C83CD10564
:10089000A8F0C03421E0D20720F19E01205431405D
:1008A000C03941E0D40760F0C83B51E0D507B8F04B
:1008B000C83082E0D807A8F428E032E02C1B3D0BBA
:1008C000AFEFB0E00E94460520E530E040E050E0A8
:1008D0000E946905822FDF91CF910C94D3042FEFF2
:1008E000F9CF20E0F7CF0E94DA042091213830912F
:1008F0002238FC01E21BF30B9F012434F7E03F0791
:1009000030F0809321389093223881E192CF80E0BB
:100910002C3543E0340708F08CCF28373105A8F395
:1009200083E1203F310508F484CF87E12836314048
:1009300008F47FCF8FE17DCFE03AFF4008F42DCF60
:1009400020911F38211519F010921F3845CF31E042
:1009500030931F3820911E382F5F20931E3822318C
:1009600008F43ACF3093203880931C3890931D3888
:10097000DF91CF910C94CD04E0E0FAE087E391E0C1
:1009800086A397A381E08287808308958F719FB7A4
:10099000F89480932D389FBF089580E00C94C6048E
:1009A0008093063808958093053808958F71809359
:1009B0002C3808952FB7F89480912A3890912B38CD
:1009C0002FBF08950F920FB60F921F9211242F93ED
:1009D0003F938F939F9380912C388115E1F1209163
:1009E0002C38809106389091053830912938899FAC
:1009F000C0011124391790F5922F917080E120FFEA
:100A000002C080E090E121FF2CC0906222FF2BC049
:100A1000906423FF2AC09068909305048093060495
:100A200081E024FF24C0809325043F5F3093293860
:100A3000809128388F5F8032E8F48093283881E0F5
:100A400080930B0A9F918F913F912F911F900F9050
:100A50000FBE0F90189520912D38C3CF80E190E004
:100A600020E08062D3CF8064D4CF8068D5CF8093DC
:100A70002604DBCF1092283880912A3890912B38A9
:100A8000019680932A3890932B38D9CFA29FB0013A
:100A9000B39FC001A39F700D811D1124911DB29FB2
:100AA000700D811D1124911D089597FB072E16F4DA
:100AB000009407D077FD09D00E94910507FC05D06E
:100AC0003EF4909581959F4F0895709561957F4F65
:100AD0000895A1E21A2EAA1BBB1BFD010DC0AA1F7F
:100AE000BB1FEE1FFF1FA217B307E407F50720F097
:100AF000A21BB30BE40BF50B661F771F881F991F12
:100B00001A9469F760957095809590959B01AC015A
:100B1000BD01CF010895EE0FFF1F0590F491E02D68
:100B20000994AA1BBB1B51E107C0AA1FBB1FA61734
:100B3000B70710F0A61BB70B881F991F5A95A9F786
:100B400080959095BC01CD010895F894FFCFD50014
:100B5000F800DC00DE00E000E200E400E400E90070
:100B6000E900E900E900E900E900E900E900E9003D
:020B7000E6009D
:100B72004869742027456D20557000564554434FEF
:100B82004E2044433334202F2F203250414320261D
:100B9200204B594252002D2D2E002E2D2E2D2E2D62
:100BA200002D2D2D002E2D2E002D2E2D2D009C8B57
:100BB200A68BA68BA68BA68BA68BA68BA68BA68BAB
:100BC200A68BA68BA68BA68BA68BA68BA68BA68B9B
:100BD200A68BA68BA68BA68BA68BA68B9A8BA68B97
:100BE200988BA68BA68BA68BA68BA68BA68B998B96
:100BF200A38BA68BA68BA78BA68BA58BA68BA68B6E
:100C0200AC8BA68BAB8B47574F542E454E45524764
:100C1200590074696E7975726C2F766574636F6EA4
:090C220070757A7A0000010203EA
:080C2B000101A68B01FFFF008F
:00000001FF
